:020000040800F2
:1000000070050020C101000871240008D514000803
:100010006D240008F5070008BB3B00080000000045
:100020000000000000000000000000004137000850
:10003000D50D0008000000004D2C0008A538000870
:10004000DB010008DB010008DB010008DB01000820
:10005000DB010008DB010008DB010008DB01000810
:10006000DB010008DB010008DB010008DB01000800
:10007000DB010008DB010008DB010008DB010008F0
:10008000DB010008DB010008DB010008DB010008E0
:10009000DB010008DB010008DB010008DB010008D0
:1000A000DB010008DB010008DB010008DB010008C0
:1000B000DB010008DB010008DB010008DB010008B0
:1000C000DB010008DB010008DB010008DB010008A0
:1000D000DB010008BD390008E1390008DB01000838
:1000E000A50F0008DB010008DB010008DB010008A8
:1000F000DB010008DB010008DB010008DB01000870
:10010000DB010008F12E0008DB010008DB0100081C
:10011000DB010008DB010008DB010008DB0100084F
:10012000290A00086D0A0008DB010008E90A000836
:10013000DB010008DB010008DB010008DB0100082F
:10014000DB010008DB010008DB010008DB0100081F
:10015000DB010008DB010008DB010008DB0100080F
:10016000DB010008DB010008DB010008DB010008FF
:10017000DB010008DB01000869080008DB0100085A
:10018000DB010008DB010008DB010008DB010008DF
:10019000DB010008DB010008DB010008DB010008CF
:1001A000DB010008DB010008DB010008DFF80CD0F0
:1001B00000F0EEFA00480047A14800087005002052
:1001C0000648804706480047FEE7FEE7FEE7FEE7F1
:1001D000FEE7FEE7FEE7FEE7FEE7FEE73D39000843
:1001E000AD0100082DE9F05F0546002092469B46D0
:1001F00088460646814640241BE02846414647463D
:10020000224600F02EFA53465A46C01A914110D3A6
:1002100011461846224600F015FA2D1A67EB010820
:100220004F4622460120002100F00CFA17EB00098E
:100230004E41201EA4F10104DFDC484631462A4627
:100240004346BDE8F09F2DE9FE4F804681EA03005A
:10025000C00F0C46009021F0004123F00045B8EBA0
:100260000200A94105D24046214690461C460B4655
:10027000024623F00040104347D0270DC7F30A0081
:10028000C3F30A510290401A019040286BDAC3F37D
:10029000130040F4801B0098924620B10023D2EB5B
:1002A000030A63EB0B0B01985946C0F1400250461C
:1002B00000F0C8F906460D4650465946019A00F02E
:1002C000E0F910EB08006141002487EA115284EA4A
:1002D000E7731A4340D0009A62B3019A012A4FEAA9
:1002E000075215DC001B61EB02014FF0004202EAED
:1002F0000752CDE90042001C41F5801132462B46E1
:1003000000F0E0F903B0BDE8F08F40462146F9E780
:10031000001B61EB0201001C41F5801300185B41DA
:100320002018A2F5001747EB030140EAD570B61973
:100330006D4111E06D084FEA360645EAC0754FEA97
:100340000752001B61EB0201001C41F580114908B6
:100350004FEA30000019514132462B4603B0BDE848
:10036000F04F00F0A0B90098012240000023D0EB2C
:10037000020263EBE073009821464FEAE074B8EBA9
:10038000000061EB0401E9E783F000435BE781F0E3
:10039000004158E72DE9FE4F81EA030404F00044D0
:1003A00021F0004100944FF0000B23F0004350EA8D
:1003B00001045ED052EA03045BD0C3F30A54C1F3D4
:1003C0000A552C44A4F2F3340194A0FB0254C1F367
:1003D000130141F48011C3F3130343F4801301FBB1
:1003E000024400FB034E840A970A44EA815447EA18
:1003F0008357A4FB076802958D0A05FB07854FEA22
:10040000932C04FB0C542705029D4FEA065847EA3B
:100410001637B5EB08056EEB070C870E920E47EA10
:10042000811742EA8312A7FB0201B6EB0B0164EBD2
:1004300000042B0D43EA0C335E1844EB1C50DA46E3
:100440005146E7FB0201C5F313044FEA0B3343EABD
:1004500014534FEA0432019C43EA0603A4F10C044E
:100460000294009CCDE900B400F02CF903B0BDE883
:10047000F08F00200146F9E72DE9F04D81EA0304F1
:1004800004F0004B21F0004514464FF0000A23F021
:10049000004150EA050220D054EA01021DD0C5F304
:1004A0000A570246C5F31303C1F31300C1F30A56FA
:1004B00040F4801543F48013A7EB0608101BD646C2
:1004C00008F2FD3873EB050002D308F1010801E0E2
:1004D00092185B41B8F1000F03DA00200146BDE835
:1004E000F08D00204FF48011064684460EE0171B65
:1004F00073EB050705D3121B63EB050306434CEAB8
:10050000010C49084FEA300092185B4150EA01079C
:10051000EDD152EA030012D082EA040083EA050119
:10052000084305D0101BAB4106D20122002306E090
:1005300000224FF0004302E06FF0010253101AEB6B
:1005400006004CEB085110EB0A0041EB0B01BDE833
:10055000F04D00F0A8B80EB5C10F80EAE070084475
:10056000CA07002140F233438DE80E000A460B46CD
:1005700000F0A8F803B000BD0EB540F2334102917F
:100580000021CDE900110A460B4600F09BF803B0AC
:1005900000BD00F0004230F000400AD0C10D01F56E
:1005A0006071C0F3160042EA0151C20840071143CE
:1005B000704700200146704730B5041E71F10004F9
:1005C00004DB4FF00044404264EB0101141E73F160
:1005D000000405DB1C464FF00043524263EB04036A
:1005E0008B4208BF824230BD30B5041E71F1000459
:1005F00004DB4FF00044404264EB0101141E73F130
:10060000000405DB1C464FF00043524263EB040339
:10061000994208BF904230BD30B50B4601460020DC
:100620002022012409E021FA02F59D4205D303FAB4
:1006300002F5491B04FA02F52844151EA2F1010235
:10064000F1DC30BD202A04DB203A00FA02F1002060
:1006500070479140C2F1200320FA03F31943904000
:100660007047202A04DB203A21FA02F0002170476B
:1006700021FA02F3D040C2F120029140084319460A
:100680007047202A06DBCB17203A41FA02F043EAF2
:10069000E07306E041FA02F3D040C2F1200291403B
:1006A00008431946704710B5141E73F1000408DAA8
:1006B000401C41F1000192185B411A4301D120F026
:1006C000010010BD2DE9F04D92469B4611B1B1FAE3
:1006D00081F202E0B0FA80F220329046FFF7B2FFDA
:1006E00004460F4640EA0A0041EA0B0153465A46C7
:1006F000084313D0114653EA010019D0C8F1400253
:100700005046FFF7AEFF05460E4650465946424654
:10071000FFF798FF084305D0012004E02046394642
:10072000BDE8F08D0020054346EAE0762C433743D0
:100730000A986305E40AA0EB08000022FD0A44EAD7
:1007400047540A3002D500200146E9E70105101997
:100750006941DDE9084500196941BDE8F04DA2E7AE
:10076000C1F30A52C1F3130140F2FF3341F4801187
:100770009A4202DA00200146704740F233439A421F
:10078000A2F2334202DC5242FFF76BBFFFF75ABFBF
:10079000064C074D06E0E06840F0010394E80700CE
:1007A00098471034AC42F6D3FFF704FD5C81000893
:1007B0007C8100081CB50121402002F049FA4FF469
:1007C0000070009001208DF8040000208DF80600D4
:1007D00002208DF8070000208DF8050069460448C6
:1007E00000F0DCFD4FF40071014800F042FE1CBD3A
:1007F0000018024000BFFEE730B10749096841F028
:100800000101054A116005E00349096821F0010171
:10081000014A11607047000000000550014948611D
:10082000704700000000055030B10749096841F4E5
:100830008041054A116005E00349096821F48041BF
:10084000014A116070470000000005500146002079
:100850000022044B1B6903EA01020AB1012000E0F7
:10086000002070470000055010B50120FFF7EEFF93
:1008700001280CD10649088006480078401C05492B
:1008800008700020044908800120FFF7C7FF10BD51
:100890004C0000203A0000204800002029B1074AFF
:1008A000D2680243054BDA6006E0044AD268C343CB
:1008B0009BB21A40014BDA607047000000000550FF
:1008C00000210E4A126844F201039A430B4B1A604E
:1008D0001A46116840F6F2729143028843881A431F
:1008E00083881A43C3881A4303891A4343891A43E6
:1008F00083891A431143014A116070470000055073
:1009000010B50121C80502F0B3F900214FF4000031
:1009100002F0AEF910BD000001460020034A526803
:100920000A400AB1012000E00020704700B00240F8
:1009300070B50021002200230024344D2D68344E70
:100940003540324E356035462D68066835432F4EAA
:10095000356035466D6B25F00705756335466D6B63
:1009600046683543294E7563456835B9C56829021F
:10097000058A2A04057D2B0621E04568012D05D155
:10098000C5682902058A2A04002318E04568022D5B
:1009900005D1C56869010569EA0200230FE04568D1
:1009A000032D06D1C56869010569AA024569EB03F3
:1009B00005E0C568290105692A0245692B0341EA5A
:1009C0000205866835431D43104EB66B35430F4E06
:1009D000B5638569F56335462D6C6FF30D05356498
:1009E00035462D6CC6693543084E3564858C2C041C
:1009F00035466D6C05F04045756435466D6C066A8C
:100A000026433543014E756470BD000000B00240BE
:100A1000FCE0FCFF0348006840F001000149086069
:100A20007047000000B0024010B50C490C4800F0BF
:100A300055F9012811D10B480088401C094908804C
:100A40000846008808490988884202D101200549E2
:100A500008800249024800F065F810BD20800010AF
:100A6000106402404A0000208800002010B5174999
:100A7000174800F033F9012827D116480088401C98
:100A8000144908800846008813490988884202D121
:100A9000002010490880114A12885400E21704EB24
:100AA000927291100E4A12880A4B1B88D21A521E5B
:100AB0000C4B1B885A434FF0504303EB420001F0AC
:100AC000BBFD0249024800F02DF810BD008800105F
:100AD0002864024048000020880000208600002092
:100AE000840000208200002010B502F091FC10BDAF
:100AF0000246094B9A4201D2084801E006481038E4
:100B000001F000531BB1064B0B40C36002E0044BE5
:100B10000B40836070470000106402400060024098
:100B20007D0F7D0F0246094B9A4201D2084801E031
:100B30000648103801F000531BB1064B0B40C36050
:100B400002E0044B0B4083607047000010640240D9
:100B5000006002407D0F7D0F21B1026842F001026A
:100B6000026003E0026822F00102026070470000A8
:100B7000016821F001010160002101604160816094
:100B8000C1600161212141614A49884204D13D216E
:100B9000484A103A91608CE046491831884205D1A4
:100BA0004FF47461434A103A916082E04149303118
:100BB000884205D14FF474113E4A103A916078E0B2
:100BC0003C494831884205D14FF07461394A103AA6
:100BD00091606EE037496031884204D13649354A28
:100BE000103AD16065E033497831884204D1334905
:100BF000304A103AD1605CE02E499031884204D1ED
:100C00002F492C4A103AD16053E02A49A831884232
:100C100005D14FF03D51274A103AD16049E02949AA
:100C2000884204D13D21274A083A116041E0254914
:100C30001831884205D14FF47461224A083A116094
:100C400037E020493031884205D14FF474111D4AF4
:100C5000083A11602DE01B494831884205D14FF018
:100C60007461184A083A116023E0164960318842DD
:100C700004D11149134A121F11601AE01149783149
:100C8000884204D10D490F4A121F116011E00D492D
:100C90009031884204D10A490A4A121F116008E0C3
:100CA0000849A831884204D14FF03D51054A121F2E
:100CB00011607047106002403D000020400F00208E
:100CC00000003D2010640240014600200A6802F046
:100CD00001020AB1012000E00020704770B5024611
:100CE000002000240025124EB24201D2114B01E037
:100CF0000F4B103B104E0E4036B11E2606EAD12493
:100D0000166806EA040502E0566906F0800501F05F
:100D100000560EB15C6800E01C68084E344004EADE
:100D2000010616B10DB1012000E0002070BD0000E9
:100D300010640240006002403C0F3C0F7D0F7D0FAD
:100D400010B501F080034BB122B1436943F0800339
:100D5000436103E0436923F08003436180290BD0A2
:100D60002AB1036801F01E042343036004E0036812
:100D700001F01E04A343036010BD000010B5002263
:100D80000268134B1A40CC680B6823434C69234319
:100D90008C692343CC6923430C6A23434C6A234365
:100DA0008C6A23434C6B23438C6B23431A430260AE
:100DB000426922F00702D1E90B3423431A4342610E
:100DC0000B6943604B6883608B68C36010BD000093
:100DD0003F801CF07047000000B587B00121084635
:100DE00001F036FF0121102001F092FF07220A21B5
:100DF000214800F01BFB072209211F4800F016FBC9
:100E000000208DF81A0001208DF81B0002208DF8BB
:100E100019008DF818000002059005A9164800F089
:100E2000BDFA02208DF818004002059005A912486D
:100E300000F0B4FA4FF4E13001900020ADF8080062
:100E4000ADF80A00ADF80C00ADF810000C20ADF8BC
:100E50000E0001A9094802F03DFE01F00AFB012243
:100E600040F22551054802F010FE0121034802F02E
:100E7000C9FD07B000BD00000000024000100140A5
:100E800001B504490098086000BF024800680028C6
:100E9000FBD108BD90000020F0B500211BE0002030
:100EA00013E001EBC10505EB01153A4E06EB851584
:100EB00035F8105001EBC10606EB0116364F07EB73
:100EC000861626F81050451CA8B2344D2D88A8422D
:100ED000E7DB4D1CA9B2324D2D88A942DFDB012092
:100EE00052E0012149E00124451EAAB228E04D1E2E
:100EF000ABB21DE000EBC00505EB0015264E06EB7E
:100F0000851535F811504FF6FF76B5420CD002EB3F
:100F1000C20505EB0215204E06EB851535F813507A
:100F20004FF6FF76B54201D1002404E05D1CABB260
:100F30008D1CAB42DEDB00BF04B904E0551CAAB235
:100F4000851CAA42D3DB00BF5CB94FF6FF7500EBEE
:100F5000C00606EB00160F4F07EB861626F8115059
:100F600009E0002500EBC00606EB0016094F07EB71
:100F7000861626F811504D1CA9B2084D2D886D1EFD
:100F80008D42B0DC451CA8B2054D2D886D1E8542F2
:100F9000A7DCF0BD000050D0000020D0860000206B
:100FA0008800002010B54FF4005000F011F828B16F
:100FB000012003490880400300F004F810BD000040
:100FC000380000200149086070470000143C0140CF
:100FD00001460020034A12680A400AB1012000E0DD
:100FE00000207047143C0140002123498279002AE7
:100FF0003AD00A46126803689A430B461A600A1DE3
:10100000126803689A430B1D1A60027911440A683A
:1010100003681A430A60184A0832126803689A4340
:10102000154B08331A601A1D126803689A43124B55
:101030000C331A604279102A0ED11A1F1268036805
:101040001A430D4B08331A601A1D126803681A43BD
:10105000094B0C331A600DE00749427911440A68C4
:1010600003681A430A6005E0027911440A680368BC
:101070009A430A6070470000003C01401FB50121FF
:10108000042001F0E5FD0121880301F041FE01F09B
:1010900003FA4FF40050029000208DF80C008DF8F8
:1010A0000F0002A90B4800F079F90D21022002F08F
:1010B00049FB4FF40050009000208DF804000820F8
:1010C0008DF8050001208DF806006846FFF78CFFBB
:1010D0001FBD000000080240F0B500211BE0002009
:1010E00013E001EBC10505EB0115374E06EB851545
:1010F00035F8105001EBC10606EB0116334F07EB34
:10110000861626F81050451CA8B2314D2D88A842ED
:10111000E7DB4D1CA9B22F4D2D88A942DFDB012052
:101120004BE0012142E00124451EAAB221E04D1E00
:10113000ABB216E000EBC00505EB0015234E06EB45
:10114000851535F8115045B102EBC20505EB0215C6
:1011500006EB851535F813500DB9002404E05D1C2D
:10116000ABB28D1CAB42E5DB00BF04B904E0551CFB
:10117000AAB2851CAA42DADB00BF54B9002500EBF5
:10118000C00606EB0016104F07EB861626F8115026
:101190000AE04FF6FF7500EBC00606EB00160A4F9B
:1011A00007EB861626F811504D1CA9B2084D2D8864
:1011B0006D1E8D42B7DC451CA8B2064D2D886D1EF4
:1011C0008542AEDCF0BD0000000050D0000020D011
:1011D000860000208800002010B502460020002371
:1011E000102A03D14FF02044636E0FE0B2F5807FE8
:1011F00002D10A4C236809E0B2F5805F03D1074CA5
:101200002034236802E0054CD434236803EA010447
:101210008C4201D0002000E0012010BD840000A01D
:101220000021D0E900231A4383685B1E42EA43127F
:10123000C36842EA4321014A11607047500100A08F
:1012400070B500220021002300240568AD00A5F13F
:10125000C045D5F840216FF30E02D0E90156354361
:10126000C668354306693543466935438669354363
:10127000C6693543066A3543466A35432A430568DD
:1012800035B90568AD00A5F1C045C5F8402111E0AC
:101290003B4D2B686FF30E03D0E907563543466A82
:1012A00035432B43364D2B600568AD00A5F1C04595
:1012B000C5F84021056875BB314D0835066855F8FD
:1012C000261001F07041856A2D686D1E866A766869
:1012D000761E45EA0616856AAD686D1E46EA052645
:1012E000856AED686D1E46EA0536856A2D8A6D1E93
:1012F00046EA0546856AAD8A6D1E46EA0556856A48
:101300002D7E6D1E46EA056529431D4D083506688C
:1013100045F8261032E0FFE7194D0835066855F804
:10132000261001F07041856A2D686D1E866A766808
:10133000761E45EA0616856AAD686D1E46EA0526E4
:10134000856A2D8A6D1E46EA054529430C4D0835F0
:101350002C6804F07044856AED686D1E2E03856A62
:10136000AD8A6D1E46EA05552C434FF02045C5F861
:101370004841034D0835066845F8261070BD000049
:10138000400100A00449096841EA40014FF02042B1
:10139000C2F8541170470000540100A0F0B50A468D
:1013A00000210023002400BF3DE0012505FA01F3E0
:1013B000156805EA03049C4234D105684F000326F2
:1013C000BE40B543056015794E00B540066835430B
:1013D00005601579012D02D01579022D16D1856889
:1013E0004F000326BE40B543856055794E00B54099
:1013F000866835438560456801268E40B543456063
:10140000456896798E40B6B235434560C5684F0051
:101410000326BE40B543C560D5794E00B540C668C9
:101420003543C560491C1029BFD3F0BDF0B500237A
:1014300000244D07ED0E02FA05F3CE1000F1200551
:1014400055F826504E07F70E0F26BE40B543CF1075
:1014500000F1200646F82750CE1000F1200555F87F
:10146000265045EA0304CE1000F1200545F8264039
:10147000F0BD418370470183704700002DE9F041C2
:1014800080460C461248007820B902F05FF801202F
:101490000F4908702512E6B2A5F1A101C1EB0112B6
:1014A00002EB411106EB4101A13901EB4101C900F9
:1014B00001EB4101C800C11700EB5171CF1007F5D6
:1014C000AA014822404602F019F80020BDE8F08148
:1014D0008000002000BFFEE721B1028842F4806254
:1014E000028004E002884FF6FF331A400280704702
:1014F00070B502460024002500230020958A138B36
:101500001B0445EA030626F07F4404EA01068E42E6
:1015100001D1012000E0002070BD21B1028842F01D
:101520000102028004E002884FF6FE731A40028036
:101530007047000010B504461348844209D10121C8
:10154000480501F0D5FB00214FF4001001F0D0FB5D
:1015500018E00E48844209D10121880501F0C8FB3A
:1015600000214FF4800001F0C3FB0BE008488442E7
:1015700008D10121C80501F0BBFB00214FF4000098
:1015800001F0B6FB10BD00000054004000580040C0
:10159000005C004021B1028842F48072028004E0C5
:1015A00002884FF6FF631A400280704721B102881B
:1015B00042F40072028004E002884FF6FF531A40A2
:1015C000028070472DE9FF4704460D460026B146CC
:1015D0000427DFF8CC80A6884FF6C0700640684626
:1015E00001F0A6FBDDF808802E48B8FBF0F01FFAEA
:1015F00080F946EA0906A68020884FF6FE71084069
:10160000208000262849286888420CD82868400095
:10161000B8FBF0F087B2042F00DA04273E4309F14B
:101620000100208427E0E8884BF6FF71884206D14C
:10163000286800EB4000B8FBF0F087B209E02868AA
:1016400000EBC00101EB0010B8FBF0F087B247F4EB
:101650008047C7F30B0008B947F0010747F4004083
:1016600006434FF4967009FB00F04FF47A7190FB3B
:10167000F1F0401C2084A683208840F001002080E7
:1016800026884FF6F5300640A88869890843064346
:101690002680A889298908432081BDE8FF870000AA
:1016A00000127A0040420F00A08601000146088A1D
:1016B000C0B2704712B141F0010101E001F0FE013A
:1016C0000182704701827047F0B58BB00446002557
:1016D000002600271D48008800F47840C5121B48EA
:1016E000007800F01F071948008800F4FC604611DC
:1016F000FFF706F94FF44030019002200290049663
:101700000397059504F4004008B1FF2000E0002095
:1017100006900F4800680790002008904FF4F07082
:1017200009904FF448700A9001A8FFF701F9FFF7FC
:1017300071F900BF0220FFF7EFF80028FAD0034844
:10174000008800F0FFFB0BB0F0BD0000540000204B
:101750005800002030B50546002409E0202221462B
:10176000284600F06BF8094800688088204484B25D
:10177000B4F5487F09DA054800688088204480B2C3
:101780000249096889888842E8DA30BD50000020A3
:101790002DE9F04F93B007468846914600BF0026DA
:1017A0004FF4487078434FEA400B4644494601A83D
:1017B000FFF764FE002535E005EB450001A90C5C50
:1017C000240205EB4500401C085C0443240205EBA1
:1017D0004500801C085C04434FF0000A1BE004F441
:1017E000000048B11248008812490968022202FB31
:1017F000061121F80B0008E00F4800880D49096820
:10180000022202FB061121F80B00761C64000AF18B
:10181000010000F0FF0ABAF1180FE0DB06F542768E
:10182000681CC5B2182DC7DB13B0BDE8F08F0000EF
:1018300054000020580000205600002070B50546D6
:101840000E461446A4F12000C4B20748006801689F
:1018500005480068C088604301EB400231462846D5
:1018600000F044F870BD0000500000202DE9F04168
:1018700007460C4600251DE020787E280BDC2278E8
:1018800029463846FFF7DAFF174800688088284461
:1018900085B2641C0EE02688300200EB262086B25A
:1018A000324629463846FFF773FF05F1180085B226
:1018B000A41C00BFB5F5487F14DA0B480068808887
:1018C000284480B2084909688988884201DB0120E0
:1018D00000E00020217809B1012100E0002108404A
:1018E0000028C9D1BDE8F081500000202DE9F04169
:1018F00004460D46134600BF002200BF00204FF4EF
:10190000487767437E00284400214DE000223FE0F5
:10191000294F3F68BF884FF00C0C97FBFCF74FEA4C
:10192000C70C802707FA0CF7174133F811C007EAF4
:101930000C0727B9204F3F68BF880C2F0DDD33F807
:1019400011704FF0010C0CFA02FC07EA0C078FB97A
:10195000194F3F68BF880C2F0CDD184F3F88DFF808
:1019600060C0DCF800C04FF0020808FB00CC2CF887
:1019700006700BE0134F3F88DFF844C0DCF800C06E
:101980004FF0020808FB00CC2CF80670401C521CDB
:10199000094F3F68BF889742BAD8074F3F68BF8852
:1019A000C7F548773844491C034F3F68FF888F428A
:1019B000ACD8BDE8F08100005000002056000020A7
:1019C00058000020540000202DE9F04F8BB0054650
:1019D0000E4614461F464FF00008C146C246C34695
:1019E0004FF4487000FB065020490968022202FBB0
:1019F00000181F48008800F478404FEAE0291C488E
:101A0000007800F01F0B1A48008800F4FC604FEAD1
:101A1000601AFEF775FF4FF44030019002200290EB
:101A2000CDF810A0CDF80CB0CDF814900F20069092
:101A3000CDF81C802FB900200890012009900A944D
:101A400005E040F21F300890099401200A9001A897
:101A5000FEF76EFFFEF7DEFF00BF0220FEF75CFF21
:101A60000028FAD00BB0BDE8F08F0000580000202D
:101A7000540000202DE9F04105460E4617461C464D
:101A800000233A4631462846FFF79EFF301981B2BF
:101A900000233A462846FFF797FF012322463146A6
:101AA0002846FFF791FFE91988B201232246314603
:101AB000FFF78AFFBDE8F0811CB5012140F2FF105D
:101AC00001F0C6F80420009002208DF805008DF882
:101AD000040000208DF806008DF807006946AF4825
:101AE000FFF75CFC0E220221AC48FFF79FFC0820A8
:101AF00000906946A948FFF751FC0E220321A74830
:101B0000FFF794FC4FF4807000906946A348FFF7FC
:101B100045FC0E220821A148FFF788FC0120009017
:101B200069469F48FFF73AFC092200219C48FFF7CD
:101B30007DFC4FF40060009069469A48FFF72EFC48
:101B40000E220B219748FFF771FC4FF48050009054
:101B500069469448FFF722FC0E220C219148FFF7BA
:101B600065FC0220009069468D48FFF717FC0922AA
:101B700001218B48FFF75AFC4020009069468A48B3
:101B8000FFF70CFC0E2206218748FFF74FFC2020B0
:101B9000009069468548FFF701FC0E220521834825
:101BA000FFF744FC4020009069468048FFF7F6FBB1
:101BB0000E2206217D48FFF739FC4FF400500090BB
:101BC00069467648FFF7EAFB0E220D217348FFF7BE
:101BD0002DFC4FF48060009069467348FFF7DEFBF0
:101BE00009220A217048FFF721FC4FF400400090C1
:101BF00069466A48FFF7D2FB0E220F216748FFF7BC
:101C000015FC0120009069466948FFF7C7FB0E22CA
:101C100000216748FFF70AFC80200090694665486C
:101C2000FFF7BCFB0E2207216248FFF7FFFB0420F1
:101C3000009069465E48FFF7B1FB0E2202215C4826
:101C4000FFF7F4FB1020009069465848FFF7A6FB09
:101C50000E2204215548FFF7E9FB4FF48050009015
:101C600069465148FFF79AFB0E220C214E48FFF7B8
:101C7000DDFB4020009069464F48FFF78FFB0E22A6
:101C800006214D48FFF7D2FB4FF4006000906946F3
:101C90004548FFF783FB0E220B214348FFF7C6FBA5
:101CA0001020009069464248FFF778FB0E2204217D
:101CB0003F48FFF7BBFB0820009069463948FFF713
:101CC0006DFB0E2203213748FFF7B0FB4FF4807005
:101CD000009069463248FFF761FB0E220821304828
:101CE000FFF7A4FB4FF40070009069462C48FFF703
:101CF00055FB0E2209212A48FFF798FB802000900F
:101D000069462948FFF74AFB0E2207212648FFF7BC
:101D10008DFB4FF48060009069462548FFF73EFB3D
:101D20000E220A212248FFF781FB4FF40070009039
:101D300069461F48FFF732FB0E2209211C48FFF7B6
:101D400075FB4FF48060009069461C48FFF726FB46
:101D50000E220A211948FFF769FB1020009002208B
:101D60008DF8050001208DF8040000208DF8060094
:101D700001208DF8070069460F48FFF70FFB802010
:101D8000009069460C48FFF709FB10210A48FFF74D
:101D900072FB80210848FFF76EFB1CBD001C02404F
:101DA00000040240000002400018024000100240FF
:101DB0000020024000080240000C024000140240D3
:101DC00001480068704700005000002000B58FB047
:101DD0000121880600F09CFF0121C80500F038FFB2
:101DE000FFF76AFE01F06AFA00200090019002906D
:101DF00003900C900D900E90042207214FF4C070B8
:101E000001F03CF84FF4803001F026F8012001F099
:101E10002FF800BF3D2000F0FFFF0028FAD000207F
:101E2000049005902E2006901720079040F24E3027
:101E3000089040F2F710099040F262300A9040F2A8
:101E40000D200B90684600F0BFF80FB000BD0000F9
:101E500000B591B02F20019040F24E300290182032
:101E6000039040F2F710049002200590FF200690A6
:101E700000200790089009900A904FF480600B9022
:101E800005200C9040F243600E90C01E0F904FF45E
:101E9000F07010904FF050400D9001A9134800F0E1
:101EA00064F90320059012480D904FF4C0600B9028
:101EB00007200C9001A90D48803000F056F9012050
:101EC00000F0DEF90121094800F044F9012107483A
:101ED000803000F03FF9012000F0D2F9054800F011
:101EE00015F8012000F05EF811B000BD84680140D3
:101EF00000B80BD060000020024A1080024A118016
:101F0000704700005400002056000020014908607E
:101F1000704700005000002038B94FF05041064A89
:101F200011600021054A116005E00549024A11606F
:101F30000121024A11607047580000205C00002017
:101F400000B80BD001490880704700005400002001
:101F500010B504460848006820B92146074800F03B
:101F6000F7F804E021460548803000F0F1F8012040
:101F700000F086F910BD00005C000020846801407C
:101F800030B10749096841F00101054A116005E0D7
:101F90000349096821F00101014A116070470000FE
:101FA0001868014030B10749096841F48031054A99
:101FB000116005E00349096821F48031014A11608C
:101FC0007047000018680140F0B50021002200238E
:101FD0000024002500265B4F3F68DFF86CC107EA4C
:101FE0000C07DFF860C1CCF80070078A3904674637
:101FF0003F68D0F814C04CEA010C47EA0C07DFF840
:1020000044C1CCF800700CF104073F68DFF838C118
:1020100007EA0C07DFF82CC10CF1040CCCF80070B7
:10202000078B3A0467463F68D0F81CC04CEA020CA4
:1020300047EA0C07DFF80CC10CF1040CCCF8007077
:102040000CF104073F68DFF800C107EA0C07DFF86E
:10205000F4C00CF1080CCCF80070078C3B04674608
:102060003F68D0F824C04CEA030C47EA0C07DFF8BD
:10207000D4C00CF1080CCCF800700CF104073F68D8
:10208000DFF8C4C007EA0C07DFF8B8C00CF10C0C8D
:10209000CCF80070078D3C046746D7F800C0C76ACB
:1020A00027434CEA070C274F0C37C7F800C03F1DE9
:1020B0003F68DFF898C007EA0C07DFF888C00CF12A
:1020C000100CCCF80070D0E9007C47EA0C07D0F87F
:1020D00008C047EA0C07D0F80CC047EA0C07DFF845
:1020E00064C00CF1100CDCF800C047EA0C07DFF804
:1020F00054C00CF1100CCCF80070476B3D02078EF9
:102100003E04104F24373F6807F07F47DFF834C0A4
:102110000CF1240CCCF8007046EA0507D0F838C062
:1021200047EA0C07DFF81CC00CF1240CDCF800C0F7
:1021300047EA0C07DFF80CC00CF1240CCCF8007057
:10214000F0BD00000868014000F800F08F88FE0F25
:102150004161704721B1026842F00102026003E070
:10216000026822F00102026070472DE9F04100246C
:1021700000250026002200270023B1F804C04FEA02
:102180000C44D0F804C00CF4704CC0F804C0D1F872
:1021900000C04CEA040CC0F804C0B1F80CC04FEA0F
:1021A0000C45D0F808C00CF4704CC0F808C0D1F849
:1021B00008C04CEA050CC0F808C0D0F810C02CF0DC
:1021C000070CC0F810C0D1F810C0C0F810C0D1F88A
:1021D0001CC04FEA0C26B1F820C04FEA0C4291F81F
:1021E00024C04FEA0C67D0F818C09C46C0F818C04D
:1021F000D1F818C04CEA060C4CEA020C4CEA070C69
:10220000C0F818C0D0F814C02CF0FF0CC0F814C0EF
:10221000D1F814C0C0F814C0D0F81CC040F2077840
:102220002CEA080CC0F81CC0D1E90AC84CEA080C1A
:10223000C0F81CC0D0F828C09C46C0F828C0D1F80F
:1022400030C0C0F828C0B1F838C04FEA0C43D0F80D
:102250002CC00CF0E02CC0F82CC0D1F834C04CEAF3
:10226000030CC0F82CC0D0F830C06FF30A0CC0F8D3
:1022700030C0D1F83CC0C0F830C0BDE8F0810000EB
:1022800001490860704700002468014070B585B0BE
:1022900000220220DBE00221D1E0431E03EBC30455
:1022A00004EB03136E4C04EB83144B1E14F8133031
:1022B00003F01F03ADF8003000EBC00303EB001385
:1022C000674C04EB83144B1E14F8133003F01F0308
:1022D000ADF80230431C03EBC30404EB0313604C62
:1022E00004EB83144B1E14F8133003F01F03ADF8F6
:1022F0000430431E03EBC30404EB0313584C04EBFC
:10230000831313F8113003F01F03ADF8063000EB10
:10231000C00303EB001304EB831313F8113003F035
:102320001F03ADF80830431C03EBC30404EB031395
:102330004B4C04EB831313F8113003F01F03ADF87B
:102340000A30431E03EBC30404EB0313444C04EBB9
:1023500083144B1C14F8133003F01F03ADF80C303A
:1023600000EBC00303EB00133D4C04EB83144B1C48
:1023700014F8133003F01F03ADF80E30431C03EBC9
:10238000C30404EB0313364C04EB83144B1C14F806
:10239000133003F01F03ADF81030BDF80040BDF856
:1023A0000250022606FB0544BDF804502C44BDF83B
:1023B000065006FB0544BDF80850042606FB0544FC
:1023C000BDF80A50022606FB0544BDF80C502C440B
:1023D000BDF80E5006FB0544BDF810506319DC171C
:1023E00003EB14742211D30243EA821313439AB20B
:1023F000002A0ADA002300EBC00404EB0014184D95
:1024000005EB841424F8113017E0B2F5803F0BDBA4
:102410004FF6FF7300EBC00404EB0014104D05EB06
:10242000841424F8113008E000EBC00303EB001320
:102430000B4C04EB831323F811204B1C99B2094B6E
:102440001B889B1E8B423FF728AF431C98B2064B5C
:102450001B889B1E83423FF71EAF05B070BD000076
:10246000000050D0860000208800002000BFFEE75A
:10247000704708B54FF4A06000F05EF825208DF895
:10248000000001208DF801008DF802008DF8030096
:10249000684600F015F808BD08B54FF4A06000F0DC
:1024A0004BF828208DF8000000208DF801008DF8F1
:1024B000020001208DF80300684600F001F808BD15
:1024C00070B5002100230F22C4781CB3174C246878
:1024D00004F4E064C4F5E064C4F30721C1F104042A
:1024E000E3B20A4144789C40E1B28478144021432D
:1024F0000C07210E0E4C05786155047804F01F0579
:102500000124AC4005786D11AD0005F1E025C5F85A
:10251000004109E0047804F01F050124AC40054D9A
:102520000678761145F8264070BD00000CED00E0FD
:1025300000E400E080E100E002490143024A11604A
:10254000704700000000FA050CED00E010B50446ED
:102550000021FF2000F01AFB00217C2000F016FB78
:1025600004217D2000F012FB09217C2000F00EFBED
:1025700021467D2000F00AFB00217D2000F006FBB3
:1025800010BD1FB50121084600F082FB0220ADF806
:1025900000000020ADF802002020ADF8040000206B
:1025A000ADF80600ADF80800ADF80A00ADF80C0073
:1025B0006846FEF785F91FBD70B590B004460D461C
:1025C00016460121880500F043FB1A48FEF7D0FAB1
:1025D00000BF1848FEF778FB0028FAD14FF00070D2
:1025E0000190029403958020049005968000069047
:1025F00040000790400008908000099000200A9059
:102600004FF400300B9000200C9003200D90002020
:102610000E900F9001A90748FEF7B0FB0121054875
:10262000FEF79AFA00BF0348FEF74EFB0128FAD1E5
:1026300010B070BD2864024030B591B004460D461C
:102640000121880500F004FB00212748FEF784FAE9
:1026500000BF2548FEF738FB0028FAD14FF0007084
:10266000029022480390049400200590069507905C
:102670004FF4806008908000099040000A9040115B
:102680000B9040020C9004200D9003200E904FF010
:1026900080700F900020109002A91348FEF76EFB87
:1026A00001211148FEF758FA00BF0F48FEF70CFB56
:1026B0000128FAD14FF4C060FFF73EFF39208DF8B2
:1026C000040001208DF8050000208DF8060001208F
:1026D0008DF8070001A8FFF7F3FE01221021024840
:1026E000FEF72EFB11B030BD2864024028000550D3
:1026F00000B587B0012140F2C91000F0A9FA2020EE
:10270000059002208DF8180003208DF81900002094
:102710008DF81A0001208DF81B0005A96A48FEF704
:102720003DFE0D2205216848FEF780FE1020059031
:1027300005A96648FEF732FE0D2204216348FEF724
:1027400075FE4020059005A96048FEF727FE0D2282
:1027500006215E48FEF76AFE0820059005A95C4840
:10276000FEF71CFE08215A48FEF783FE4FF4007066
:10277000059005A95748FEF711FE0D22092155487D
:10278000FEF754FE4FF48060059005A95148FEF70E
:1027900005FE0D220A214F48FEF748FE4FF4006067
:1027A000059005A94B48FEF7F9FD0D220B2149487C
:1027B000FEF73CFE4FF48050059005A94548FEF712
:1027C000EDFD0D220C214348FEF730FE4FF4804012
:1027D000059005A93F48FEF7E1FD0D220E213D4879
:1027E000FEF724FE0820059005A93B48FEF7D6FD1C
:1027F0000D2203213848FEF719FE4020059005A957
:102800003148FEF7CBFD0D2206212F48FEF70EFEC4
:102810008020059005A92C48FEF7C0FD0D22072158
:102820002948FEF703FE0121480500F051FA012175
:10283000022000F00DFA042206212848FEF7F6FDDA
:10284000042207212548FEF7F1FD402005900220D3
:102850008DF8180000208DF8190001208DF81A005D
:1028600000208DF81B0005A91C48FEF797FD0422E7
:1028700006211A48FEF7DAFD8020059005A91748C1
:10288000FEF78CFD1648FEF755FE0020ADF8080057
:102890004BF6FF70ADF80A00FE20ADF80C004FF4C7
:1028A0008060ADF80E000001ADF8100049F6404020
:1028B000019001A90A48FEF785FE01210848FEF7AC
:1028C0002CFE07B000BD00000020024000000240C6
:1028D00000180240001C0240000C024000040240AC
:1028E0000054004008B54FF4C060FFF725FE4E20AD
:1028F0008DF8000000208DF8010001208DF8020005
:102900008DF803006846FFF7DBFD01210846FDF75F
:10291000C5FF08BD2DE9F04104460D46E11704EB63
:1029200091718910A4EB810111B10120BDE8F08102
:10293000E91705EB91718910A5EB810109B102201E
:10294000F4E72046E11704EB9171C1F38F072846A5
:10295000E91705EB9171C1F38F060021FF2000F00C
:1029600015F90421E02000F011F90021502000F0B9
:102970000DF9F9B25A2000F009F9F1B25B2000F02C
:1029800005F9C7F30128042000EAA61040EA080868
:1029900041465C2000F0FAF80021E02000F0F6F853
:1029A0000020C3E710B504460121FF2000F0EEF837
:1029B0001C2000F00FF820701D2000F00BF8607054
:1029C0000A2000F007F8A0700B2000F003F8E07078
:1029D00010BD000070B5054642F2107400260121BA
:1029E0004348FEF7D7FD00BF05E0201EA4F1010417
:1029F00001D1FF2070BD3F493D48FEF779FD002819
:102A0000F3D0002261213A48FEF754FE42F21074DE
:102A100005E0201EA4F1010401D1FF20EAE73649B8
:102A20003348FEF765FD0028F3D0E9B23048FEF7E1
:102A300049FE42F2107405E0201EA4F1010401D108
:102A4000FF20D7E72C49891C2948FEF751FD0028B3
:102A5000F2D027481430008840F4806024491431B3
:102A6000088001212248FEF795FD42F2107405E02E
:102A7000201EA4F1010401D1FF20BBE71D491C4821
:102A8000FEF736FD0028F3D0012261211848FEF739
:102A900011FE42F2107405E0201EA4F1010401D1E0
:102AA000FF20A7E71349491C1148FEF721FD002824
:102AB000F2D000210E48FEF70FFD42F2107405E03F
:102AC000201EA4F1010401D1FF2093E709493F3101
:102AD0000748FEF70DFD0028F2D001210448FEF75B
:102AE00065FD0348FEF7E2FD0646304682E700003A
:102AF00000540040010003008200070010B50121CE
:102B0000FF2000F043F88021122000F03FF810BDB4
:102B100010B5FFF7F3FF002409E0194A02EB440265
:102B20005178174A12F8140000F030F8641CDE2CBB
:102B3000F3D3002409E0124A02EB44025178104A10
:102B400012F8140000F022F8641CDE2CF3D30024E9
:102B500009E00B4A02EB44025178094A12F81400CA
:102B600000F014F8641CDE2CF3D3064801880648F4
:102B70000088FFF7CFFE3020FFF7E8FC10BD000013
:102B8000387B0008880000208600002070B50546CC
:102B90000E4642F2107401212948FEF7FBFC00BFEB
:102BA00005E0201EA4F1010401D1FF2070BD2549DC
:102BB0002348FEF79DFC0028F3D000226021204826
:102BC000FEF778FD42F2107405E0201EA4F1010426
:102BD00001D1FF20EAE71C491948FEF789FC0028CB
:102BE000F3D0E9B21648FEF76DFD42F2107405E02D
:102BF000201EA4F1010401D1FF20D7E71249891C4E
:102C00000F48FEF775FC0028F2D031460C48FEF75D
:102C100059FD42F2107405E0201EA4F1010401D117
:102C2000FF20C3E70849891C0548FEF761FC00281E
:102C3000F2D001210248FEF7B9FC0020B6E70000FF
:102C400000540040010003008200070070470000AC
:102C500029B1064A12680243044B1A6004E0034A91
:102C600012688243014B1A607047000030380240FE
:102C700029B1064A12680243044B1A6004E0034A71
:102C800012688243014B1A607047000010380240FE
:102C900029B1064A12680243044B1A6004E0034A51
:102CA00012688243014B1A607047000034380240BA
:102CB00029B1064A12680243044B1A6004E0034A31
:102CC00012688243014B1A60704700003838024096
:102CD00029B1064A12680243044B1A6004E0034A11
:102CE00012688243014B1A6070470000403802406E
:102CF00029B1064A12680243044B1A6004E0034AF1
:102D000012688243014B1A6070470000203802406D
:102D100029B1064A12680243044B1A6004E0034AD0
:102D200012688243014B1A60704700004438024029
:102D3000F0B5002100220024022500260223324F94
:102D40003F6807F00C0121B1042905D0082937D1CB
:102D500005E02E4F076036E02D4F076033E02A4F25
:102D60003F1F3F68C7F38056274F3F1F3F6807F05C
:102D70003F036EB1264FB7FBF3F7DFF88CC0ACF121
:102D8000040CDCF800C0CCF3881C07FB0CF40CE04E
:102D90001E4FB7FBF3F7DFF870C0ACF1040CDCF8A2
:102DA00000C0CCF3881C07FB0CF4174F3F1F3F6893
:102DB000C7F301477F1C7D00B4FBF5F7076002E015
:102DC000124F076000BF00BF0F4F3F6807F0F001D0
:102DD0000909104F7A5C0768D74047600A4F3F687F
:102DE00007F4E051890A0B4F7A5C4768D740876047
:102DF000054F3F6807F46041490B064F7A5C47680E
:102E0000D740C760F0BD0000083802400024F4003D
:102E100040787D011400002010B5014600220023F7
:102E200000204A11012A02D10A4C236808E0022A34
:102E300003D1084C7034236802E0064C74342368D4
:102E400001F01F02012494401C400CB1012000E05D
:102E5000002010BD0038024001460020034A1068DF
:102E600020F4403008431060704700008C38024066
:102E700001490867704700000000474210B5830110
:102E800043EA016343EA0273014C236010BD000072
:102E90008838024070B5014601F01F0301F01F049D
:102EA00001F01F05C3EB03104000C4EB041600EB58
:102EB000860005EB850600EB4600642690FBF6F2E3
:102EC000D00240EA8210104380B270BD0149086010
:102ED00070470000382C014001460020034A126868
:102EE0000A400AB1012000E000207047342C014064
:102EF00010B500F0A1FA10BD29B1064A12680243CC
:102F0000044B1A6004E0034A12688243014B1A60C2
:102F1000704700003C2C01401CB50121FC20FFF74C
:102F200097FE02208DF804008DF8050000208DF832
:102F300006008DF80700012000906946D948FEF789
:102F40002DFA0C220021D748FEF770FA02200090DB
:102F50006946D448FEF722FA0C220121D148FEF737
:102F600065FA042000906946CE48FEF717FA0C2255
:102F70000221CC48FEF75AFA082000906946C94859
:102F8000FEF70CFA0C220321C648FEF74FFA102078
:102F900000906946C348FEF701FA0C220421C1489B
:102FA000FEF744FA202000906946BE48FEF7F6F985
:102FB0000C220521BB48FEF739FA4FF480500090EF
:102FC0006946B848FEF7EAF90C221146B548FEF703
:102FD0002DFA4FF4005000906946B248FEF7DEF932
:102FE0000C220D21AF48FEF721FA4FF480400090EB
:102FF0006946AC48FEF7D2F90C220E21A948FEF72B
:1030000015FA4FF4004000906946A648FEF7C6F94D
:103010000C220F21A348FEF709FA0120009069460F
:10302000A148FEF7BBF90C2200219F48FEF7FEF9EC
:103030000220009069469C48FEF7B0F90C2201215D
:103040009948FEF7F3F94FF480400090694697489D
:10305000FEF7A4F90C220E219448FEF7E7F94FF48D
:103060000040009069469148FEF798F90C220F2124
:103070008E48FEF7DBF90120009069468B48FEF789
:103080008DF90C2200218948FEF7D0F9022000902A
:1030900069468648FEF782F90C2201218348FEF733
:1030A000C5F98020009069468148FEF777F90C2227
:1030B00007217F48FEF7BAF94FF480700090694607
:1030C0007B48FEF76BF90C2208217948FEF7AEF930
:1030D0004FF40070009069467548FEF75FF90C22C6
:1030E00009217348FEF7A2F94FF480600090694609
:1030F0006F48FEF753F90C220A216D48FEF796F946
:103100004FF40060009069466948FEF747F90C22C9
:103110000B216748FEF78AF94FF48050009069460A
:103120006348FEF73BF90C2211466148FEF77EF931
:103130004FF40050009069465D48FEF72FF90C22CD
:103140000D215B48FEF772F94FF48040009069460C
:103150005748FEF723F90C220E215548FEF766F971
:103160004FF40040009069465148FEF717F90C22D1
:103170000F214F48FEF75AF94FF4807000906946CE
:103180004A48FEF70BF90C2208214848FEF74EF991
:103190004FF40070009069464448FEF7FFF80C2297
:1031A00009214248FEF742F94FF4806000906946D9
:1031B0003E48FEF7F3F80C220A213C48FEF736F9A8
:1031C0004020009069463B48FEF7E8F80C220621B3
:1031D0003848FEF72BF91020009069463248FEF778
:1031E000DDF80C2204213048FEF720F92020009061
:1031F00069462D48FEF7D2F80C2205212A48FEF731
:1032000015F90120009069462B48FEF7C7F80C22FB
:1032100000212948FEF70AF94FF400600090694642
:103220002048FEF7BBF80C220B211E48FEF7FEF8E3
:103230004FF40040009069461B48FEF7AFF80C229F
:103240000F211948FEF7F2F84FF48070009069469C
:103250001548FEF7A3F80C2208211348FEF7E6F8FC
:103260008020009069461348FEF798F80C22072149
:103270001048FEF7DBF80220009069460C48FEF784
:103280008DF80C2201210A48FEF7D0F801200090A9
:1032900069460748FEF782F80C2200210448FEF731
:1032A000C5F81CBD0014024000180240000C02408A
:1032B00000100240001C02400008024000B593B01C
:1032C000FFF72AFE01210846FFF7F2FC02200190D9
:1032D000072002900420039007200490022005900C
:1032E00006900790012008900020099004200A9081
:1032F00010200B9040200C904FF4C0700D900020D7
:103300000E904FF400600F9040001090400011901C
:1033100001A8129008A8FDF793FF00F002F813B07F
:1033200000BD1FB50024012000900820019001205D
:1033300002900020039000BF20210120FDF74CFFE8
:103340000028F9D16846FDF76BFF0A2000F04EF81F
:10335000022000900820019001200290002003909C
:1033600000BF20210120FDF737FF0028F9D1684672
:10337000FDF756FF032000900820019004200290E2
:103380000020039000BF20210120FDF725FF002829
:10339000F9D16846FDF744FF00BF20210120FDF769
:1033A0001BFF0028F9D16846FDF73AFF40F23124AF
:1033B000042000900820019001200290039400BF97
:1033C00020210120FDF708FF0028F9D16846FDF70C
:1033D00027FF40F26A50FDF7D5FF00BF20210120F2
:1033E000FDF7FAFE0028F9D11FBD000001B581B03C
:1033F00000200090054901984843009002E00098A1
:10340000401E009000980028F9D10CBDA086010054
:1034100010B50748006800F0C05040B101200549D0
:1034200008604FF0C25102485830FDF761FB10BDF3
:1034300000640240A800002010B54FF48070FFF730
:103440004BFD50B10020254908704FF48070FFF704
:103450003DFD01202249086037E00220FFF73CFDD6
:1034600030B10220FFF732FD02201C4908702CE029
:103470000820FFF731FD30B10820FFF727FD0420B9
:103480001649087021E02020FFF726FD30B12020EA
:10349000FFF71CFD06201149087016E01020FFF709
:1034A0001BFD30B11020FFF711FD05200B490870FE
:1034B0000BE04FF40070FFF70FFD30B14FF40070D8
:1034C000FFF704FD07200549087000214CF23A304F
:1034D000FFF712FD0148007810BD0000A000002099
:1034E000A400002021B1028842F04002028004E0E2
:1034F00002884FF6BF731A400280704770B50546C8
:103500000C461646402010490880032000F090F831
:10351000C4F3074000F08CF8C4F3072000F088F8EB
:10352000E0B200F085F804E0FF2000F081F8287098
:103530006D1C301EA6F101018EB2F5D1402002496A
:10354000891E088070BD00001A14024000B587B0C3
:1035500001212020FFF77CFB01210805FFF7D8FBA4
:10356000052207213048FDF761FF052208212E487A
:10357000FDF75CFF052209212B48FDF757FF80204E
:10358000009002208DF805008DF8040000208DF8D1
:10359000060003208DF8050000208DF8070069461D
:1035A0002148FDF7FBFE4FF48070009069461E48ED
:1035B000FDF7F4FE4FF40070009069461A48FDF7DD
:1035C000EDFE4020009001208DF804006946164869
:1035D000FDF7E4FE40201449183108800020ADF8C2
:1035E00008004FF48270ADF80A000020ADF80C001E
:1035F0000220ADF80E000120ADF810004002ADF839
:1036000012000820ADF814000020ADF816000720C5
:10361000ADF8180002A9054800F054F8012103484C
:10362000FFF760FF07B000BD0014024000500140EA
:1036300010B504464FF48050194908600AE0184953
:103640000868411E164A116020B9002000F058F8A1
:10365000C0B210BD0221134800F026F80028EED0B9
:103660002146104800F02CF84FF480500C490860B7
:103670000AE00B490868411E094A116020B901207F
:1036800000F03EF8C0B2E4E70121064800F00CF873
:103690000028EED0034800F010F8C0B2D9E70000CF
:1036A0008C000020005001400246002013890B408E
:1036B0000BB1012000E00020704701468889704767
:1036C0008181704710B50022028802F441520B88B4
:1036D0004C8823438C882343CC8823430C89234381
:1036E0004C8923438C892343CC8923431A4302808A
:1036F000838B4FF2FF74234083830B8A038210BDB8
:1037000010B50446214602A000F078FA002010BD52
:103710003C3C2D464C4153482D4552524F522D3E74
:103720003E2053504920B5C8B4FDB3ACCAB12165A1
:1037300072726F72436F6465203D2025640A000039
:103740007047000030B500228B071C0F0F2303FACF
:1037500004F20B4B8C1053F824309343084C8D101B
:1037600044F8253023468C1053F824308C07240F5E
:1037700000FA04F42343024C8D1044F8253030BD88
:10378000083801400CB500200190009041480068C5
:1037900040F480303F49086000BF3E48006800F4B4
:1037A000003000900198401C0190009818B90198D1
:1037B000B0F5A04FF1D13748006800F4003010B1E7
:1037C0000120009001E0002000900098012860D1C5
:1037D00030484030006840F080502E494031086049
:1037E0002D48006840F440402B49086029480830C3
:1037F00000682849083108600846006840F4004025
:1038000008600846006840F4A05008602348091F7B
:103810000860081F006840F08070091F086000BF42
:103820001C48006800F000700028F9D01A480068B1
:1038300040F480301849086000BF1748406800F421
:1038400080300028F9D01448006840F40030124954
:10385000086000BF1048406800F400300028F9D02C
:1038600040F205700E4908600A480830006820F0F0
:1038700003000849083108600846006840F002006B
:10388000086000BF03480830006800F00C000828FA
:10389000F8D10CBD0038024000700040195A4007B2
:1038A000003C024010B500F07DF800240CE0084810
:1038B00050F8240030B1064850F82400401E044956
:1038C00041F82400601CC4B2032CF0DB10BD0000E2
:1038D0000001002030B5164800684FF47A72B0FB42
:1038E000F2F1481EB0F1807F01D301201BE0481E99
:1038F0004FF0E022506150170F22002807DA13071B
:103900001D0E0C4B00F00F04241F1D5503E0130780
:103910001C0E094B1C5400BF00204FF0E0229061A8
:1039200007201061002008B100BFFEE730BD000095
:103930000000002018ED00E000E400E010B515489C
:10394000006840F47000134908601348006840F0B4
:1039500001001149086000200F49083108600E4835
:1039600000680E4908400C4908600D48091D0860B0
:10397000081F006820F48020091F08600020064905
:103980000C310860FFF7FEFE4FF0006001498039FE
:10399000086010BD88ED00E000380240FFFFF6FE31
:1039A000103000240448006820B103480068401E1D
:1039B00001490860704700009000002010B540F2F7
:1039C0002551064800F037F838B1044800F0ECF80B
:1039D000C4B22146014800F0ECF810BD00100140CF
:1039E00010B540F22551064800F025F838B10448DA
:1039F00000F0DAF8C4B22146014800F0DAF810BD50
:103A00000044004021B1828942F40052828104E0E6
:103A100082894DF6FF731A4082817047024600206A
:103A2000B1F5007F00D100BF13880B400BB101201E
:103A300000E00020704770B50246002400230025F6
:103A4000002040F66A16B14200D100BFC1F3421512
:103A500001F01F03012606FA03F3012D02D1968916
:103A6000334006E0022D02D1168A334001E0968AE7
:103A700033400C12012606FA04F41688344013B1C0
:103A80000CB1012000E0002070BDF0B50346002419
:103A900000260025002040F66A17B94200D100BF79
:103AA0001846C1F3421401F01F06012707FA06F574
:103AB000012C01D10C3004E0022C01D1103000E0C7
:103AC00014301AB107682F43076002E00768AF435C
:103AD0000760F0BD2DE9FF4705460E460024A146CC
:103AE00000BFA046B08900B100BF2C8A24F4405426
:103AF000F08804432C82AC8941F20C608443B08886
:103B000031890843718908430443AC81AC8A24F4A9
:103B10004074B0890443AC826846FFF709F9204835
:103B2000854202D01F48854202D1DDF80C9001E0A9
:103B3000DDF80890A88900F4004040B109EBC90005
:103B400000EB091031684900B0FBF1F707E009EB21
:103B5000C90000EB091031688900B0FBF1F764205F
:103B6000B7FBF0F004012009642101FB1078A8895B
:103B700000F4004040B1322000EBC800B0FBF1F08F
:103B800000F00700044308E0322000EB0810642135
:103B9000B0FBF1F000F00F0004432C81BDE8FF877B
:103BA000001001400014014001468888C0F308005D
:103BB0007047C1F308028280704700BFFEE72DE91D
:103BC000F04105460C46260AE7B231462846FFF783
:103BD000F0FF00BF80212846FFF720FF0028F9D022
:103BE00039462846FFF7E5FF00BF80212846FFF74A
:103BF00015FF0028F9D0BDE8F08100000FB4054B97
:103C000010B503A9044A029800F0DEF810BC5DF874
:103C100014FB000051450008FC0000200FB4084BC5
:103C200010B504A902AA039800F0CEF8044602A930
:103C3000002000F060FC204610BC5DF814FB000082
:103C4000F744000802E008C8121F08C1002AFAD190
:103C500070477047002001E001C1121F002AFBD10C
:103C6000704700002DE9FF5FDDE90220010DDDF85E
:103C700038B0024318D044F61050A1F2FF3141434E
:103C80000D140F98012820D0A5EB0B00401C5FEA13
:103C9000000A4FF00004474EDFF81C91A046504642
:103CA00016D5CAF1000728E00F98012443A2012885
:103CB00008D0002100980F9BC0E90021C0E9024311
:103CC000BDE8FF9F6FEA0B01F4E7CBF10000DEE7F0
:103CD000074612E0F80707D02246334640464946D9
:103CE000FCF758FB80468946224633461046194663
:103CF000FCF750FB04460E467F10002FEAD1DDE9A9
:103D00000201BAF1000F42464B4602DAFCF742FBD1
:103D100001E0FCF7B1FB04460E460022284BFCF7FD
:103D200063FC03D84FF0FF30014607E00022254B2B
:103D300020463146FCF787FAFCF712FD102409E013
:103D4000002C0ADB0A220023FCF74CFA019B3032DC
:103D50001A55641E50EA0102F2D1641C019AC4F1A2
:103D6000110314440F9A012A03D0012208430DD1F4
:103D70000AE0084304D000204FF0110B0F9080E7B9
:103D8000A3EB0B056D1E0DE05B4504DD4FF000025B
:103D900005F1010504E003DA4FF00002A5F1010589
:103DA000002AECD000980F99C0E90231C0E9004523
:103DB00086E70000000024400000F03F30000000D3
:103DC0000000F0430000E03F2DE9FF4F95B09B4617
:103DD0008946064600250FE2252877D1002427468C
:103DE000F84A0121059400E0044316F8013F203B06
:103DF00001FA03F01042F7D130782A2811D06FF081
:103E00002F033078A0F13002092A16D8059A44F021
:103E1000020402EB820203EB42021044761C05907E
:103E2000EFE759F8042B0592002A03DA504244F4D4
:103E30000054059044F00204761C30782E2816D1E8
:103E400016F8010F44F004042A280DD06FF02F0259
:103E50003078A0F13003092B09D807EB870302EB78
:103E60004303C718761CF3E759F8047B761C3078B7
:103E70006C280FD006DC4C2817D068280DD06A2893
:103E800014D104E0742810D07A280FD10DE044F446
:103E900000140AE044F4801401E044F44014727801
:103EA000824202D104F58014761C761C3078662894
:103EB0000BD013DC582877D009DC002875D04528B2
:103EC000F6D04628F4D047281AD19DE118E063289F
:103ED00035D0642879D0652812D195E1702873D047
:103EE00008DC6728F1D069286FD06E280DD06F28C4
:103EF00006D1B5E073282CD0752875D0782874D0F9
:103F00005A46179990476D1C75E1C4F30250022878
:103F100009D003280DD0D9F8001004280DD00D6069
:103F200009F1040967E1D9F80010EA17C1E9005264
:103F3000F6E7D9F800100D80F2E70D70F0E719F8F8
:103F4000041B8DF8001000208DF80100EA460120C6
:103F500003E059F804AB4FF0FF3061074FF0000168
:103F600002D40DE008F101018846B9420FDA80451C
:103F7000F8DB1AF808100029F4D108E008F1010173
:103F800088468142FADB1AF808100029F6D1059814
:103F90005B46A0EB080721463846179A00F094FAD2
:103FA000284400EB080507E04DE029E10DE01AF890
:103FB000010B5A4617999047B8F10108F7D25B46B2
:103FC00021463846179A13E142E00A220092C4F3D0
:103FD00002524FF0000A022A08D059F804CB032AF3
:103FE0004FEAEC710AD00DE029E02AE009F107015F
:103FF00021F00702F2E802C1914609E00FFA8CFCB9
:104000004FEAEC71042A03D14FFA8CFC4FEAEC71B1
:10401000002907DA0A460021DCF1000C61EB0201FD
:104020002D2202E0220504D52B228DF80420012246
:1040300003E0E20701D02022F7E7904659E00A2189
:1040400002E010220DE010214FF0000A00910BE079
:1040500010224FF0000A44F004040827009203E005
:1040600008224FF0000A0092C4F30252022A05D03F
:1040700059F804CB0021032A08D009E009F107010F
:1040800021F00702F2E802C1914605E01FFA8CFC1C
:10409000042A01D10CF0FF0C4FF00008220728D5AC
:1040A000702806D0009B83F0100353EA0A0305D062
:1040B0000EE040228DF80420012208E05CEA0102B3
:1040C00006D030228DF804208DF80500022290469B
:1040D000009B83F0080353EA0A030AD15CEA010259
:1040E00001D1620705D530228DF804204FF0010878
:1040F0007F1E582804D034A003900EA802900DE033
:1041000036A0F9E753466046009AFCF76BF8844600
:104110000398825C0298401E029002705CEA0100E3
:10412000F0D1029806A9081A00F1200A600702D50A
:1041300024F4803400E00127574502DDA7EB0A0094
:1041400000E0002000EB0A01009005984144401A6D
:104150000590E00306D45B462146179A059800F0C7
:10416000B3F90544002706E001A85A46C05D179937
:1041700090476D1C7F1C4745F6DBE0030CD55B4682
:104180002146179A059800F09FF9054404E0302075
:104190005A46179990476D1C0099481E00900029B7
:1041A000F5DC08E0029802995A460078491C029111
:1041B000179990476D1CBAF10001AAF1010AF1DCD0
:1041C00065E10000092801003031323334353637DB
:1041D0003839616263646566000000003031323353
:1041E00034353637383941424344454600000000F3
:1041F00000F058F90544761C307800287FF4ECADC7
:1042000019B02846BDE8F08F620700D4062709F1EF
:10421000070222F0070CFCE80223E14603F0004805
:104220005FEA080C02D00FF2702C0DE05FEA045C2C
:1042300002D50FF2682C07E05FEAC47C02D00FF2CF
:10424000602C01E0AFF2700C4FF0FF3823F0004318
:10425000CDF850C065280CD006DC452809D046288A
:104260001DD047283DD13DE0662818D067287ED173
:1042700038E00021112F01DB112000E0781CCDE98E
:10428000000106A90EA8FFF7EDFCDDE90F010E9A6B
:1042900003910021009207F1010A04914DE04FF0D3
:1042A00000400097CDE9011006A90EA8FFF7DAFC3F
:1042B000DDE90F0203920E9B11990022DDF80CA09C
:1042C0000093049211B9791C00EB010AB7EB0A00C4
:1042D00004D4C0F1FF3007F1010A0490AAEB0700F3
:1042E000019044E0012F00DA01270021112F01DDA8
:1042F000112000E03846CDE9000106A90EA8FFF71D
:10430000B1FCDDE90F010E9A0391002104910092A6
:10431000BA4621070CD40399514500DA8A46BAF10E
:10432000010F05DD009AAAF10101515C302908D086
:10433000B84202DA10F1040F06DA0121CDE90110CA
:1043400015E0AAF10101E9E7002805DC0499014420
:104350000491AAEB000102E0411C514500DD8A46B0
:104360000499401A401C01904FF000400290200731
:1043700004D40198504501DBCDF8048000208DF86D
:104380004F0002980DF14F07B0F1004F25D02B20C0
:104390000E9002984FF0020800280CDA404202907A
:1043A0002D200E9007E00A210298FCF735F93031F4
:1043B000029007F8011DB8F10001A8F10108F2DC34
:1043C00002980028EFD1791E0E980870307800F01E
:1043D000200040F0450007F8020D12A8C01B00F1B4
:1043E00007081498007800B1012000EB0A01019839
:1043F00001EBE07105984144401A401E0590E0032E
:1044000006D45B462146179A059800F05DF80544EE
:104410001498007818B15A46179990476D1CE0031C
:1044200024D55B462146179A059800F04DF80544BF
:104430001CE00498002807DBDDE90301884203DD66
:104440000098405C179901E0179930205A46904730
:10445000049805F10105401C04900198401E01904C
:1044600004D12E205A46179990476D1CBAF10001CD
:10447000AAF1010ADDDC05E017F8010B5A4617998D
:1044800090476D1CB8F10001A8F10108F4DC5B460F
:104490002146179A0598ABE62D0000002B0000007E
:1044A000200000002DE9F041044600251E46174675
:1044B000880404D405E039462020B0476D1C641EF2
:1044C000F9D52846BDE8F0812DE9F04104460025E4
:1044D0001E469046C80301D5302700E020278804F7
:1044E00004D505E041463846B0476D1C641EF9D539
:1044F0002846BDE8F0810A68531C0B6010707047B5
:10450000B0EE401ADFED103AF0EE632ADFED0F3A1D
:10451000B0EE633A8B1A03EE903AF8EEE33A63EEAC
:10452000813AF0EE631A03EE900AB8EE634AC4EEE5
:10453000213A63EEA03AB0EE632AF0EE433A52EE2F
:10454000823AB0EE630A70473333EB419A99954152
:1045500070B504460D46E1B20548FFF72AFB00BFDF
:1045600080210348FFF75AFA0028F9D0204670BD91
:10457000001001402DE9F047074600240025A2461F
:1045800000BF2CE0002524E004EBC40000EB041085
:10459000BF4901EB801030F8159009F01F00B842B8
:1045A0000ADB002004EBC40101EB0411B84A02EB62
:1045B000811121F815000AE04FF6FF7004EBC401E9
:1045C00001EB0411B24A02EB811121F81500681CBD
:1045D00085B2B04800888542D6DB601C84B2AE4804
:1045E00000888442CEDB022489E002257FE0601E41
:1045F00000EBC00101EB0010A54901EB8011681E22
:1046000031F8101004EBC40000EB0410A04A02EBD8
:104610008012681E32F810000144601C00EBC002DA
:1046200002EB00109A4A02EB8012681E32F810006A
:104630000144601E00EBC00202EB0010944A02EB42
:10464000801030F81500084404EBC40101EB04119C
:1046500002EB811131F815100144601C00EBC0021F
:1046600002EB00108A4A02EB801030F8150001447A
:10467000601E00EBC00202EB0010854A02EB8012C4
:10468000681C32F81000014404EBC40000EB041075
:104690007F4A02EB8012681C32F810000144601C53
:1046A00000EBC00202EB0010794A02EB8012681C9A
:1046B00032F8100001EB0008784880450AD300204A
:1046C00004EBC40101EB0411714A02EB811121F8E2
:1046D00015000AE04FF6FF7004EBC40101EB041172
:1046E0006B4A02EB811121F81500681C85B26948FC
:1046F0000088801EA8423FF77AAF601C84B26648EB
:104700000088801EA0423FF770AFFCF7C5FBFCF7A6
:10471000C3FB0224B0E00225A6E004EBC40000EBDA
:1047200004105B4901EB801030F815004FF6FF7163
:1047300088427DD1601E00EBC00101EB001054499E
:1047400001EB8011681E31F8101004EBC40000EB7F
:1047500004104F4A02EB8012681E32F81000014428
:10476000601C00EBC00202EB0010494A02EB801211
:10477000681E32F810000144601E00EBC00202EB1C
:104780000010434A02EB801030F815000144601C11
:1047900000EBC00202EB00103D4A02EB801030F843
:1047A00015000144601E00EBC00202EB0010384A05
:1047B00002EB8012681C32F81000014404EBC400C4
:1047C00000EB0410324A02EB8012681C32F8100031
:1047D0000144601C00EBC00202EB00102C4A02EB0B
:1047E0008012681C32F810000E182C4886420AD835
:1047F000002004EBC40101EB0411254A02EB8111F6
:1048000021F815000AE04FF6FF7004EBC40101EB3C
:1048100004111F4A02EB811121F8150066B900202E
:1048200004EBC40101EB0411194A02EB811100E011
:104830000EE021F8150015E04FF6FF7004EBC401FF
:1048400001EB0411124A02EB811121F8150009E075
:10485000002004EBC40101EB04110D4A02EB8111AD
:1048600021F81500681C85B20A480088801EA842FD
:104870003FF753AF601C84B207480088801EA042F7
:104880003FF749AFFCF728FCFCF726FCBDE8F087B2
:10489000000050D08600002088000020FCFF0300AC
:1048A0002DED028B00BF00BFFBF784FFFCF794FAED
:1048B000FFF710F8FDF78AFAFDF7CAFA0120FDF7B5
:1048C0005FFB0020FDF728FBFF20FDF741FB4FF6C3
:1048D000FF70FCF7F9FE0120FDF71EFBFF20FDF73E
:1048E00037FB47F6FF70FCF7EFFE47F6FF714FF618
:1048F000E070FDF701FBFDF763FAC08800EB4001B3
:1049000001EB001084B22046FCF724FFFDF758FAB3
:10491000C08800EB400101EB001084B28AA1204660
:10492000FCF7A4FFFDF7E4FE8B48FEF73BF88A484E
:10493000807826280CD04FF47C40FDF703FBFDF770
:104940003FFA002485A12046FCF790FF00BFFEE758
:10495000FEF7DEF8FDF715FE0120FBF765FFFDF71A
:10496000C1FF4FF41670FCF78BFAFCF787FBE9E008
:104970000120FBF741FF844A12885400E21704EB40
:1049800092729110814A1288521E814B1B885A43A1
:104990004FF0504303EB4200FDF74EFE4FF496708C
:1049A000FCF76EFA00207B4908801DE0794A1288E6
:1049B00002EBC20303EB0212774B03EB8211754A41
:1049C0001288734B1B885A434FF0504303EB42004D
:1049D0006D4A1288FDF7F0FD0120FCF751FA6D4891
:1049E0000088401C6B4908806A4800886B49098828
:1049F0008842DBDB00206A4908802FE000206549FF
:104A0000088020E06649098801EBC10202EB011130
:104A1000614A02EB81115F4A128831F81200FEF7F9
:104A200039FA5F49098801EBC10202EB01115A4AC8
:104A300002EB8111574A128821F81200554800886C
:104A4000401C54490880534800884F4909888842CF
:104A5000D8DB53480088401C5149088050480088E2
:104A60004E4909888842C9DBFDF710FC00F0B0F818
:104A70004C49088008460088FFF77CFD4FF4004051
:104A8000FDF760FA4FF4DC734FF4C8721421C820AC
:104A9000FCF7F0FF444800F0CFF94FF47C40FDF7FD
:104AA00051FA414C2488404D6D88641BA3B23E4CA2
:104AB000A4883D4DED88641BA2B23B4C6188E08820
:104AC000FCF7D8FF2046C28881880F20DFED370A27
:104AD0009FED370AFFF714FDBCEEC00A10EE100A76
:104AE0003449088047F6FF714FF47C40FDF704FA23
:104AF000FDF766F9C08800EB001084B22046FCF791
:104B000029FE2C48008800EE100AB8EE400A10EE8C
:104B1000100AFBF73EFD41EC180B53EC182B26A1B5
:104B20002948FFF77BF8FDF74BF9C08800EB001030
:104B300084B225492046FCF799FE1E480188234887
:104B4000FFF73DF814E70000555847413A34383034
:104B50002A383030000000002E00002020202020C5
:104B60002020202020C3BBD3D0BCECB2E2B5BD4F87
:104B70005632363430A3ACC7EBD6D8D0C2BCECB278
:104B8000E9C1ACBDD3A1A3008600002084000020B1
:104B90008200002032000020000050D08800002059
:104BA00034000020240000203E000020CDCCCC3E6C
:104BB0008FC2753C3C000020B4B9D6B1BEE0C0EB5A
:104BC0003A252E3266636D000C0100200010014072
:104BD0002DE9F0432DED108B9DB04FF01F098D484E
:104BE00000888D490988484387B24FF000089FED3F
:104BF0008B0BB0EE40FAF0EE60FA9FED880B8DED76
:104C0000080B002405E000200CA921F81400601C0A
:104C100084B21F2CF7DB002426E000251EE004EB05
:104C2000C40000EB04107F4901EB801010F8150060
:104C300000F01F000CA931F81000401C04EBC40167
:104C400001EB0411774A02EB811111F8151001F004
:104C50001F010CAA22F81100681C85B26D4800885B
:104C60008542DCDB601C84B26B4800888442D4DB64
:104C70000024C5E00CA931F81400FBF77DFC53ECCF
:104C8000182BCDE906019DED060B51EC100BFBF73F
:104C9000DAFA41EC180B3846FBF76EFC53EC182B94
:104CA000CDE906019DED060B51EC100BFBF76CFBFB
:104CB000CDE90A019DED0A0B53EC102B9FED5A0B29
:104CC00051EC100BFBF778FC00D19CE03846FBF769
:104CD00053FCCDE906019DED060B53EC102B51EC76
:104CE000180BFBF7C9FB41EC190B53EC192B9FED8B
:104CF000500B51EC100BFBF747FB41EC1A0B002556
:104D000014E00CA931F8151001FB05F0FBF723FCAA
:104D100053EC1C2BCDE906019DED060B51EC100B5D
:104D2000FBF791FA41EC1C0B681C85B2A542E8DD4B
:104D300053EC192B51EC1C0BFBF79EFB41EC1B0BAE
:104D4000601C86B214E00CA931F8161001FB06F0C5
:104D5000FBF701FC53EC1D2BCDE906019DED060B85
:104D600051EC100BFBF76FFA41EC1D0B701C86B277
:104D70001F2EE8DB53EC1A2B51EC1D0BFBF77CFBD1
:104D800041EC1E0B53EC1E2B51EC1B0BFBF7FCFAFA
:104D900053EC1E2BCDE9060151EC1B0BFBF7F4FA8B
:104DA00053EC1A2BCDE9020151EC190BFBF7F2FA87
:104DB000CDE900019DED020B53EC102B9DED000B96
:104DC00051EC100BFBF7E6FACDE904019DED060B63
:104DD00053EC102B9DED040B51EC100BFBF7DAFAA2
:104DE00041EC1F0B9DED080B53EC102B51EC1F0BEE
:104DF000FBF7FAFB02D28DED08FBA046601C84B2E3
:104E00001F2CFFF637AF00BF40461DB0BDEC108B26
:104E1000BDE8F0838600002088000020000000002C
:104E20000000F0BF000050D00000000000000000B3
:104E3000000000000000F03F1CB50246224C18CCD8
:104E4000CDE9003414202CE0C82123E000EBC0039E
:104E500003EB00131D4C04EB831333F81130BBB983
:104E6000BDF80030834201DAADF80000BDF8023031
:104E7000834201DDADF80200BDF804308B4201DA57
:104E8000ADF80410BDF806308B4201DDADF8061018
:104E90004B1C99B20E4B1B88C83B8B42D6DC431C83
:104EA00098B20C4B1B88143B8342CDDCBDF800301C
:104EB0001380BDF802305380BDF804309380BDF8F4
:104EC0000630D3801CBD000054810008000050D083
:104ED0008600002088000020000000000000000084
:104EE00000000000000000000000000000000000C2
:104EF00000000000000000000000000000000000B2
:104F0000000000000000000000008001800180011E
:104F10008001800180018001800180018001800189
:104F2000800180010000000080018001000000007D
:104F3000000000000000000000000000CC00CC00D9
:104F4000CC00CC00CC00CC00000000000000000031
:104F50000000000000000000000000000000000051
:104F60000000000000000000000000000000000041
:104F700000000000600C600C600C30063006FE1F64
:104F8000FE1F300638071803FE1FFE1F1803180304
:104F90008C018C018C01000000008000E003F80F00
:104FA0009C0E8C1C8C188C009800F801E007800E79
:104FB000801C8C188C189C18B80CF00FE003800033
:104FC00080000000000000000000000000000E183B
:104FD0001B0C110C11061106110311039B018E010C
:104FE000C038C06C60446044304430441844186C8D
:104FF0000C380000000000000000E001F00338075A
:10500000180618063003F001F000F8009C310E334A
:10501000061E061C061C063FFC73F0210000000063
:105020000000000000000000000000000C000C0068
:105030000C000C000C000C00000000000000000040
:105040000000000000000000000000000000000060
:1050500000000000000000000000000200038001CA
:10506000C000C00060006000300030003000300040
:10507000300030003000300060006000C000C00030
:105080008001000300020000000020006000C0005A
:1050900080018001000300030006000600060006F0
:1050A00000060006000600060003000380018001E0
:1050B000C0006000200000000000000000000000B0
:1050C00000000000C000C000D806F807E00130036F
:1050D0003807000000000000000000000000000091
:1050E00000000000000000000000000000000000C0
:1050F0000000000080018001800180018001FC3FF0
:10510000FC3F8001800180018001800100000000DF
:10511000000000000000000000000000000000008F
:10512000000000000000000000000000000000007F
:10513000000000000000000000008001800100016C
:1051400000018000000000000000000000000000DE
:10515000000000000000000000000000000000004F
:10516000E007E00700000000000000000000000071
:10517000000000000000000000000000000000002F
:10518000000000000000000000000000000000001F
:1051900000000000000000000000C000C00000008F
:1051A00000000000000000000000000C000C0006E1
:1051B0000006000600030003000380038001800155
:1051C0008001C000C000C00060006000000000005E
:1051D00000000000000000000000E003F007380EAF
:1051E000180C0C180C180C180C180C180C180C189F
:1051F0000C180C18180C380EF007E0030000000023
:105200000000000000000000000000018001C0015B
:10521000F0019801880180018001800180018001F6
:105220008001800180018001800180010000000078
:1052300000000000000000000000E003F80F180C60
:105240000C180C1800180018000C00060003800150
:10525000C000600030001800FC1FFC1F00000000B0
:1052600000000000000000000000E001F807180E38
:105270000C0C0C0C000C0006C003C007000C00183E
:1052800000180C180C18180CF807E00300000000B8
:1052900000000000000000000000000C000E000FE5
:1052A000000F800DC00C600C600C300C180C0C0C46
:1052B000FC3FFC3F000C000C000C000C0000000048
:1052C00000000000000000000000F80FF80F1800B8
:1052D00018000C00EC03FC071C0E001C0018001842
:1052E00000180C181C0C180EF807E0030000000052
:1052F00000000000000000000000C007F00F381C94
:10530000181818000C00CC03EC0F3C0E1C1C0C18D9
:105310000C180C18181C380EF007E00300000000F1
:1053200000000000000000000000FC1FFC1F000C3B
:1053300000060006000380038001C001C000E000F9
:10534000600060007000300030003000000000009D
:1053500000000000000000000000E003F007380E2D
:10536000180C180C180C3806F007F007180C0C185D
:105370000C180C180C18380CF80FE0030000000093
:1053800000000000000000000000E003F007380EFD
:105390001C0C0C180C180C181C1C381EF81BE019DF
:1053A0000018000C000C1C0EF807F00100000000B3
:1053B00000000000000000000000000000000000ED
:1053C00000000000800180010000000000000000DB
:1053D00000000000000000008001800100000000CB
:1053E00000000000000000000000000000000000BD
:1053F00000000000800180010000000000000000AB
:105400000000000000000000800180010001000198
:10541000800000000000000000000000000000000C
:1054200000000000000000000010001C800FE003DE
:10543000F8001800F800E003800F001C00100000C6
:10544000000000000000000000000000000000005C
:105450000000000000000000F81F00000000000035
:10546000F81F000000000000000000000000000025
:10547000000000000000000000000000000000002C
:10548000000000000000000008003800F001C00724
:10549000001F0018001FC007F001380008000000BE
:1054A00000000000000000000000E003F80F180CEE
:1054B0000C180C180018000C000600038001C00036
:1054C000C000C00000000000C000C00000000000DC
:1054D000000000000000000000000000E0071818B5
:1054E0000420C229224A11440944094409440922DA
:1054F0001113E20C024004201818E007000000001D
:105500000000000000000000000080038003C006CF
:10551000C006C006600C600C301830183018F83F18
:10552000F83F1C700C600C6006C006C00000000054
:1055300000000000000000000000FC03FC0F0C0C49
:105540000C180C180C180C0CFC07FC0F0C180C3069
:105550000C300C300C300C18FC1FFC070000000055
:1055600000000000000000000000C007F01F3838F5
:105570001C300C70066006000600060006000600DF
:10558000060006600C701C30F01FE00700000000F1
:1055900000000000000000000000FE03FE0F060EE9
:1055A000061806180630063006300630063006307B
:1055B000063006180618060EFE0FFE030000000057
:1055C00000000000000000000000FC3FFC3F0C0059
:1055D0000C000C000C000C00FC1FFC1F0C000C004D
:1055E0000C000C000C000C00FC3FFC3F0000000015
:1055F00000000000000000000000F83FF83F180025
:105600001800180018001800F81FF81F18001800DC
:1056100018001800180018001800180000000000FA
:1056200000000000000000000000E00FF83F3C78A0
:105630000E6006E007C00300030003FE03FE03C084
:1056400007C006C00EC03CF0F83FE00F00000000AD
:10565000000000000000000000000C300C300C3096
:105660000C300C300C300C30FC3FFC3F0C300C305C
:105670000C300C300C300C300C300C3000000000C2
:105680000000000000000000000080018001800197
:105690008001800180018001800180018001800102
:1056A00080018001800180018001800100000000F4
:1056B00000000000000000000000000600060006D8
:1056C00000060006000600060006000600060006AA
:1056D0000006180618063807F003E0010000000075
:1056E0000000000000000000000006300618060C54
:1056F000060606038601C60066007600DE008E01FF
:1057000006030606060C06180630066000000000B8
:105710000000000000000000000018001800180041
:1057200018001800180018001800180018001800B9
:105730001800180018001800F81FF81F00000000DB
:10574000000000000000000000000EE01EF01EF04F
:105750001EF036D836D836D836D866CC66CC66CC6D
:10576000C6C6C6C6C6C6C6C686C386C30000000077
:10577000000000000000000000000C301C303C3035
:105780003C306C306C30CC30CC308C310C330C3342
:105790000C360C360C3C0C3C0C380C300000000075
:1057A00000000000000000000000E007F81F1C38A7
:1057B0000E70066003C003C003C003C003C003C073
:1057C00003C006600E701C38F81FE00700000000E0
:1057D00000000000000000000000FC0FFC1F0C385F
:1057E0000C300C300C300C300C18FC1FFC070C007B
:1057F0000C000C000C000C000C000C000000000061
:1058000000000000000000000000E007F81F1C3846
:105810000E70066003E003C003C003C003C003C0F2
:1058200007E006630E3F1C3CF83FE0F700C00000B5
:1058300000000000000000000000FE0FFE1F063800
:105840000630063006300638FE1FFE070603060641
:10585000060C061806180630063006600000000028
:1058600000000000000000000000E003F80F1C0C26
:105870000C180C180C001C00F803E00F001E003878
:10588000063006300E301C1CF80FE0070000000048
:1058900000000000000000000000FE7FFE7F80018D
:1058A00080018001800180018001800180018001F0
:1058B00080018001800180018001800100000000E2
:1058C000000000000000000000000C300C300C3024
:1058D0000C300C300C300C300C300C300C300C30E8
:1058E0000C300C300C301818F81FE00700000000D6
:1058F00000000000000000000000036006300630D9
:1059000006300C180C180C18180C180C380E300631
:105910003006700760036003C001C0010000000092
:10592000000000000000000000000360C361C361CC
:10593000C3616633663366336633663366336C1B26
:105940006C1B6C1B2C1A3C1E380E380E000000001D
:10595000000000000000000000000FE00C70183094
:105960003018700C600EC00780038003C003E0068F
:10597000700C301C18180C300E6007E0000000009E
:105980000000000000000000000003C006600C30B2
:105990001C383818300C6006E007C0038001800115
:1059A00080018001800180018001800100000000F1
:1059B00000000000000000000000FC7FFC7F006091
:1059C00000300018000C000600038001C0006000D9
:1059D000300018000C000600FE7FFE7F0000000073
:1059E00000000000000000000000E003E003600091
:1059F00060006000600060006000600060006000A7
:105A00006000600060006000600060006000600096
:105A10006000E003E00300000000300030006000A0
:105A200060006000C000C000C000C00180018001B3
:105A300080010003000300030006000600000000D0
:105A400000000000000000000000E003E00300038D
:105A5000000300030003000300030003000300032E
:105A6000000300030003000300030003000300031E
:105A70000003E003E003000000000000C001C001DB
:105A800060036003600330063006180C180C000039
:105A90000000000000000000000000000000000006
:105AA00000000000000000000000000000000000F6
:105AB00000000000000000000000000000000000E6
:105AC00000000000000000000000FFFFFFFF0000DA
:105AD000000000000000000000000C000C000C00A2
